:020000040800F2
:1000000000000320B1310008CD210008DB210008E9
:10001000E1210008E7210008ED21000800000000B0
:10002000000000000000000000000000F3210008B4
:1000300001220008000000000F2200081D22000815
:1000400005320008053200080532000829220008A0
:100050000532000805320008B7220008C522000852
:100060000532000805320008A92200080532000800
:100070000532000805320008352200080532000864
:100080000532000805320008053200080532000874
:100090000532000805320008053200080532000864
:1000A0000532000805320008053200080532000854
:1000B0000532000805320008053200080532000844
:1000C0000532000805320008053200080532000834
:1000D000492200085D2200080532000805320008A8
:1000E0000532000805320008053200080532000814
:1000F000712200087D2200088922000805320008CC
:1001000005320008053200080532000805320008F3
:1001100005320008053200080532000805320008E3
:100120000532000805320008952200080532000853
:0C01300005320008053200080532000806
:10013C0010B5054C237833B9044B13B10448AFF315
:10014C0000800123237010BD9400002000000000EB
:10015C0068B4000808B5034B1BB103490348AFF35F
:10016C00008008BD000000009800002068B4000862
:10017C0010F8012B11F8013B012A28BF9A42F7D045
:10018C00D01A7047034613F8012B002AFBD1181A1A
:10019C000138704780B483B000AF7860064BD3F859
:1001AC00902005497B681343C1F8903000BF0C3791
:1001BC00BD465DF8047B70470008005880B485B0DC
:1001CC0000AF78604FF0B043DA6C4FF0B0417B6811
:1001DC001343CB644FF0B043DA6C7B681340FB6085
:1001EC00FB6800BF1437BD465DF8047B704780B4D4
:1001FC0085B000AF78604FF0B043D3F84C214FF08E
:10020C00B0417B681343C1F84C314FF0B043D3F885
:10021C004C217B681340FB60FB6800BF1437BD4664
:10022C005DF8047B704780B500AF03F097F903F0DD
:10023C009BF94FF48030FFF7ADFF00F021F800F090
:10024C00C3F800BF80BD0000B0B588B000AF0B4B49
:10025C003C1D1D460FCD0FC495E8070003C422803A
:10026C000234130C23700AF07DFD3B1D184609F077
:10027C00D8FF00BF2037BD46B0BD00BF80B400081A
:10028C0080B588B000AF3B1D00221A605A609A609E
:10029C00DA601A610023BB8300237B8300233B833A
:1002AC000023FB7738E0FB7F444ADB0013449B7947
:1002BC00002B2BD0FB7F414A52F83330404A9342FB
:1002CC001BD03F4A934223D8B3F1904F03D03D4A01
:1002DC00934209D01CE0FB7F384ADB0013449A8818
:1002EC00BB8B1343BB8314E0FB7F344ADB0013440A
:1002FC009A887B8B13437B830BE0FB7F2F4ADB00BD
:10030C0013449A883B8B13433B8302E000BF00E00D
:10031C0000BFFB7F0133FB77FB7F252BC3D9002369
:10032C00FB600123BB6003233B61BB8B002B14D010
:10033C00BB8B7B600120FFF741FF0120FFF757FFCC
:10034C003B1D19464FF0904004F0DAFABB8B0022AB
:10035C0019464FF0904004F043FC7B8B002B12D0DD
:10036C007B8B7B600220FFF729FF0220FFF73FFF0A
:10037C003B1D1946134804F0C3FA7B8B0022194627
:10038C00104804F02DFC3B8B002B13D03B8B7B6077
:10039C000420FFF713FF0420FFF729FF3B1D19462C
:1003AC00074804F0ADFA3B8B00221946044804F0D0
:1003BC0017FC00BF00BF2037BD4680BD1CB5000830
:1003CC00000800480004004880B400AF00BFBD46E0
:1003DC005DF8047B7047000080B483B000AF786098
:1003EC00074BD3F8803023F0070205497B68134391
:1003FC00C1F8803000BF0C37BD465DF8047B7047F8
:10040C000004005880B483B000AF7860064BD3F87A
:10041C00902005497B681343C1F8903000BF0C371E
:10042C00BD465DF8047B70470008005880B483B06B
:10043C0000AF78604FF0B0430A4AC3F89C204FF0ED
:10044C00B043D3F89C3023F47C527B681B024FF0F2
:10045C00B0411343C1F89C3000BF0C37BD465DF86A
:10046C00047B7047FECAFECA80B483B000AF7860CC
:10047C004FF0B0439B6823F400424FF0B0417B68CF
:10048C0013438B6000BF0C37BD465DF8047B70478F
:10049C0080B400AF044B1B68C3F30B031846BD4676
:1004AC005DF8047B704700BF002004E080B400AF0F
:1004BC00044B1B681B0C9BB21846BD465DF8047BB5
:1004CC00704700BF002004E080B400AF054B1B69EF
:1004DC00044A23F00403136100BFBD465DF8047B9E
:1004EC00704700BF00ED00E080B483B000AF7860CF
:1004FC007B68FF225A6200BF0C37BD465DF8047B57
:10050C00704780B483B000AF78607B68CA225A62AF
:10051C007B6853225A6200BF0C37BD465DF8047BE2
:10052C00704780B483B000AF786039607B689B689B
:10053C0023F007023B681A437B689A6000BF0C37B4
:10054C00BD465DF8047B704780B500AF044B4FF49B
:10055C0000421A6100F030F800F035F800BF80BDA1
:10056C000040005880B500AF00F041F800F05AF898
:10057C000949002000F056FEFFF755FE012101202D
:10058C000AF08EFC00F027F900F02CF900F0BAF913
:10059C0000F056F800BF80BD0805002080B400AF05
:1005AC0000BFBD465DF8047B704780B500AF50209E
:1005BC00FFF728FF00BF80BD80B400AF00BFBD4671
:1005CC005DF8047B704780B582B000AF002009F065
:1005DC00E9FD78607B68002B05D07B689B79184619
:1005EC00FFF724FF00BF00BF0837BD4680BD80B5B4
:1005FC0000AFFFF7D3FFFFF7D8FF00F003F800BF01
:10060C0080BD000080B500AF0548FFF77AFF0021E0
:10061C000348FFF786FF0248FFF766FF00BF80BD67
:10062C000028004080B500AF4FF40040FFF71CFFDE
:10063C000AF024FC0420FFF7CFFE00BF80BD0000B1
:10064C0080B588B000AF0AF0D7F9114A00214020DC
:10065C000AF088FD0F4B3B600F4B7B603B46194605
:10066C000E4809F0B9FE0E4BBB600E4BFB600E4BF7
:10067C003B6140F23C537B6107F1080318460AF0DA
:10068C00FDFA0AF0B3F900BF2037BD4680BD00BFAC
:10069C001DA4000834070320B9060008D106000881
:1006AC004C09032040080320F801032080B483B0D8
:1006BC0000AF0346FB7100BF0C37BD465DF8047BF1
:1006CC007047000080B588B000AF78607B685B68CD
:1006DC000B33FB61FB691B889BB2A3F51243072B01
:1006EC001FD801A252F823F01507000827070008AD
:1006FC002F0700082F0700082F0700082F070008F6
:10070C002F0700082F07000807F10C03184609F003
:10071C00B5FD786800F01BF804E0786800F006F886
:10072C0000E000BF00BF2037BD4680BD80B485B05F
:10073C0000AF78607B685B680B33FB60FB6802334F
:10074C00BB6000BF1437BD465DF8047B704780B5B5
:10075C008AB000AF786007F1080300221A605A6073
:10076C009A60DA6000237B6200233B627B685B68E3
:10077C000B33FB61FB690233BB61BB691B78002B3C
:10078C001DD1FFF761FD0F233B727F23BB72FFF777
:10079C008DFE78627B6A9BB2BB82FFF779FE386272
:1007AC003B6A9BB2FB8207F10803184609F050FD27
:1007BC0001F0AEFD002101200AF072FB07E0BB69DD
:1007CC001B78012B03D17B6800221A7000BF00BF7D
:1007DC002837BD4680BD80B400AF00BFBD465DF874
:1007EC00047B704780B500AF0121002002F01EFD94
:1007FC000121012002F01AFD0121022002F016FD58
:10080C0000BF80BD80B584B000AF786002F062FE9E
:10081C00B8607B68FB60FB68B3F1FF3F0AD002F065
:10082C0071FE03461A46FB681344FB6002E0FFF7B7
:10083C004BFE30BF02F04EFE0246BB68D31AFA687C
:10084C009A42F4D800BF00BF1037BD4680BD80B5BA
:10085C0000AF4FF0FF300AF089FB00BF80BD80B5C0
:10086C0000AF0AF04DFB00BF80BD80B582B000AF79
:10087C00786039604FF0FF300AF078FB00BF083722
:10088C00BD4680BD80B582B000AF786000214020AD
:10089C000AF08AFC00BF0837BD4680BD80B582B027
:1008AC0000AF786002200AF0EBFC00BF0837BD46B1
:1008BC0080BD80B582B000AF786002200AF000FDE8
:1008CC0000BF0837BD4680BD80B582B000AF03467F
:1008DC00FB80FB88102B06D0102B0DDC012B05D0D8
:1008EC00022B06D008E001F043FE06E001F04EFEBC
:1008FC0003E001F05DFE00E000BF00BF0837BD461D
:10090C0080BD000080B500AF034B012203490020DD
:10091C0000F0F4FE00BF80BD2D090008B8000020D7
:10092C0080B500AF134B1B88FF2B1AD8124B1B78CA
:10093C000D2B0BD100F026F80E4B00221A804FF431
:10094C00807200210D480AF081FD0AE0094B1B88DA
:10095C005A1C91B2074A11801A46074B1978074B5B
:10096C009954074B01220449002000F0C7FE00BF38
:10097C0080BD00BFC0010020B8000020C0000020D6
:10098C002D09000880B500AF15491648FFF7F0FB9C
:10099C000346002B06D1144B144A1A60124803F07C
:1009AC008DFF1BE012490F48FFF7E2FB0346002BBB
:1009BC0007D10D4B4FF0B0521A600B4803F07EFF7D
:1009CC000CE00C490748FFF7D3FB0346002B05D17D
:1009DC00054B094A1A60044803F070FF00BF80BD44
:1009EC009CB40008C0000020B000002004000016D9
:1009FC00A0B40008A4B400080100001680B483B0B1
:100A0C0000AF7860064BD3F8802005497B68134310
:100A1C00C1F8803000BF0C37BD465DF8047B7047D1
:100A2C000008005880B483B000AF7860054B1A689A
:100A3C0004497B6813430B6000BF0C37BD465DF85F
:100A4C00047B70470008005880B483B000AF0D4B96
:100A5C009B6A9BB27B600B4B9B6A9BB23B6005E035
:100A6C003B687B60074B9B6A9BB23B607A683B6838
:100A7C009A42F5D13B6818460C37BD465DF8047BAD
:100A8C00704700BF0028004080B485B000AF03461B
:100A9C000A46FB711346BB71BA791D4913465B00BC
:100AAC001344DB000B4415331B78FB73FB7B062BC9
:100ABC0009D0FA7B164913465B001344DB000B4448
:100ACC001433FA791A70FA79114913465B001344FE
:100ADC00DB000B441533FA7B1A70FA790C49134678
:100AEC005B001344DB000B441433BA791A70BA79E7
:100AFC00074913465B001344DB000B441533FA79AA
:100B0C001A7000BF1437BD465DF8047B704700BFF8
:100B1C00C401002080B485B000AF03460A46FB71C7
:100B2C001346BB71294B1B78DBB2BA799A4232D08F
:100B3C00BA79274913465B001344DB000B4414338A
:100B4C001B78FB73FA7B224913465B001344DB00D2
:100B5C000B441533FA791A70FA791D4913465B0068
:100B6C001344DB000B441533BA791A70FA7918491F
:100B7C0013465B001344DB000B441433FA7B1A70EE
:100B8C00BA79134913465B001344DB000B4414334E
:100B9C00FA791A7014E0FA790D4913465B00134484
:100BAC00DB000B441533BA791A70BA79084913462D
:100BBC005B001344DB000B441433FA791A7000BF4A
:100BCC001437BD465DF8047B704700BF540200200B
:100BDC00C401002080B584B000AF0346FB714E4BBE
:100BEC001B78DBB2062B18D14B4B1B78DAB24B4B74
:100BFC001A70494AFB791370FA79494913465B001C
:100C0C001344DB000B44153306221A70454B4FF08E
:100C1C00FF321A600023FB8178E000F009F90346EB
:100C2C00FB81FA793E4913465B001344DB000B440D
:100C3C0008331968FB89FA791944394813465B0063
:100C4C001344DB00034408331960FA793449134622
:100C5C005B001344DB000B4408331B68BB602E4B5A
:100C6C001B78DBB219462E4A0B465B000B44DB00AB
:100C7C00134408331B68BA689A4237D3264B1B7847
:100C8C007B737A7B264913465B001344DB000B44D1
:100C9C0015331B783B7313E07A7B214913465B00B9
:100CAC001344DB000B4415331B787B737A7B1C4994
:100CBC0013465B001344DB000B4415331B783B736A
:100CCC003B7B062B0BD03A7B154913465B00134438
:100CDC00DB000B4408331B68BA689A42DCD27A7B7F
:100CEC00FB7911461846FFF7CFFE0FE00A4B1B7835
:100CFC00DAB2FB7911461846FFF70CFF064B1B784E
:100D0C00DAB2064B1A70044AFB791370FB89184649
:100D1C001037BD4680BD00BF540200205502002094
:100D2C00C40100205802002080B485B000AF0346F7
:100D3C000A46FB711346BB71394B1B78DBB2FA794F
:100D4C009A4211D1364B1B78DAB2364B1A70FA79BB
:100D5C00354913465B001344DB000B4415331B78F9
:100D6C00DAB22F4B1A703EE0FA792F4913465B002A
:100D7C001344DB000B4414331B78FB73FA792A49B8
:100D8C0013465B001344DB000B4415331B78BB7319
:100D9C00F979FA7B24480B465B000B44DB000344D7
:100DAC0015331B78D8B2204913465B001344DB0083
:100DBC000B44153302461A70BB7B062B13D0F97902
:100DCC00BA7B19480B465B000B44DB00034414331D
:100DDC001B78D8B2144913465B001344DB000B4458
:100DEC00143302461A70FA790F4913465B00134408
:100DFC00DB000B440C3301221A70094B1B78DBB25D
:100E0C00062B07D1BB79002B04D1084B4FF0FF32D6
:100E1C001A6000BF00BF1437BD465DF8047B7047F5
:100E2C005402002055020020C4010020580200206A
:100E3C0080B582B000AF1A4B1B68B3F1FF3F26D0D0
:100E4C00FFF702FE7860164B1B687A689A4205D849
:100E5C00134B1A687B68D31A7B600AE0114B1B8812
:100E6C001A467B68D31A3B600D4B1B683A681344D7
:100E7C007B600D4B1B781A467B6802FB03F37B608F
:100E8C000A4B1B781A467B68D3407B6001E0002339
:100E9C007B607B689BB218460837BD4680BD00BF9F
:100EAC0058020020600200205E0200205D0200203B
:100EBC0080B582B000AF0346FB80FB88002B08D1C5
:100ECC00FFF7C2FD0346214A1360032003F06DFBBC
:100EDC0039E0FB88012B03D81D4B1B78012B02D06A
:100EEC00FB88013BFB8000BF1A4B1B68DB6803F0DF
:100EFC000403002BF8D0174B1B68DB68DAB2154BD8
:100F0C001B6862F49062DA60134B4FF40022DA60D3
:100F1C00032003F058FB114B5B691B0C1B04FA8874
:100F2C000E4913434B61FFF78FFD0346074A1360CD
:100F3C00084B1B689A68074B1B6842F480629A60E6
:100F4C00AFF3008000BF0837BD4680BD58020020BB
:100F5C005D02002008050020000800580028004011
:100F6C0080B584B000AF454B9B6803F48063B3F548
:100F7C00806F07D100BF424B1B68DB6803F0040392
:100F8C00002BF8D13E4B1B689A683D4B1B6822F432
:100F9C0080629A603B4B1B78FB73FA7B3A49134691
:100FAC005B001344DB000B4408331B68BB60FFF78A
:100FBC003FFF0346FB80FB88BA689A4205D20023A8
:100FCC00BB81324B01221A704DE0FB88304A1288EB
:100FDC0092B213441A46BB68934206D92C4B1B8819
:100FEC00BB812A4B00221A703DE0BB689AB2FB8889
:100FFC00D31ABB81254B01221A7034E0FA7B2249AB
:10100C0013465B001344DB000B4408331A68FB885F
:10101C009A420AD2FA7B1C4913465B001344DB004C
:10102C000B44083300221A6013E0FA7B164913466E
:10103C005B001344DB000B4408331968FB88FA7B14
:10104C00C91A114813465B001344DB0003440833F0
:10105C001960FA7B0C4913465B001344DB000B440C
:10106C0015331B78FB73FB7B062BC7D1BB8918464A
:10107C00FFF71EFF00BF1037BD4680BD00280040A3
:10108C000805002054020020C40100205C0200204E
:10109C006202002080B58AB000AFEFF310837B6151
:1010AC007B697B6272B600BF594B1B68CA225A62BD
:1010BC00574B1B6853225A62554B1B689A68544B0A
:1010CC001B6822F480629A60524B1B7887F823309D
:1010DC0097F82320504913465B001344DB000B4464
:1010EC000C331B78DBB2022B6ED197F823204A49C4
:1010FC0013465B001344DB000B441B68FB6197F841
:10110C002320454913465B001344DB000B4410338A
:10111C001B68BB61414B1B78DBB2002B4CD097F8A2
:10112C0023203D4913465B001344DB000B440D3375
:10113C001B78DBB2012B24D197F823300121184600
:10114C00FFF7F2FD7B6A3B613B6983F3108800BFBC
:10115C0097F82320304913465B001344DB000B4403
:10116C0004331A6897F823301146184600F032FA07
:10117C00274B1B68CA225A62254B1B6853225A62A2
:10118C0012E07B6AFB60FB6883F3108800BF97F862
:10119C002330184600F09AF91D4B1B68CA225A627C
:1011AC001B4B1B6853225A6297F82330FA69194675
:1011BC00B86900F095FA22E0FFF7D2FE7B6ABB60BB
:1011CC00BB6883F310881AE000BF114B1B68DB6807
:1011DC0003F00403002BF8D00D4B1B68DB68DAB26C
:1011EC000B4B1B6862F49062DA600D4B4FF40022DB
:1011FC00DA607B6A7B607B6883F3108800BF044BEA
:10120C001B68FF225A6200BF2837BD4680BD00BF55
:10121C000805002054020020C40100205C020020BC
:10122C000008005880B588B000AF03463960FB71E8
:10123C005E4B1B68CA225A625C4B1B6853225A6273
:10124C005B4B9B685A4A43F020039360584B9B6856
:10125C00DBB203F00703DBB2C3F10403DAB2554B84
:10126C001A70534B1B6903F4FE034FF4FE023A61F0
:10127C003A6992FAA2F2FA60FA687A617A69002AFB
:10128C0001D1202203E07A69B2FA82F2D2B2D340C1
:10129C00DBB20133DAB2484B1A70454B1B699BB277
:1012AC00C3F30E039BB201339AB2444B1A80434BE7
:1012BC001B88013B404A127802FB03F3A3F5A07391
:1012CC003C4A1278D340BB61BB694FF6FE72934225
:1012DC0004D93B4B4FF6FF721A8003E0BB699AB2FC
:1012EC00374B1A804FF40020FFF79CFB4FF4002083
:1012FC00FFF784FBFB79002B3DD1324B01221A7096
:10130C00314B4FF0FF321A600023FB770CE0FA7F71
:10131C002E4913465B001344DB000B440C330022B4
:10132C001A70FB7F0133FB77FB7F052BEFD9284B22
:10133C0006221A701D4B1B689A681C4B1B6822F402
:10134C0080629A60194B1B68DB68DAB2174B1B681A
:10135C0062F49062DA601F4B4FF40022DA600320D3
:10136C0003F031F9114B1B689A68104B1B6842F45F
:10137C0080429A6009E00D4B1B68DB6803F48063C4
:10138C00002B02D0032003F010F9084B1B68FF223E
:10139C005A6200220321032003F0C5F8032003F056
:1013AC00DCF800BF2037BD4680BD00BF080500201B
:1013BC00002800405D0200205E0200206002002038
:1013CC00620200205C02002058020020C4010020B0
:1013DC00540200200008005880B48BB000AFF860B5
:1013EC00B9603B601346FB71002387F82630EFF39E
:1013FC001083FB61FB693B6272B600BF04E097F897
:10140C002630013387F8263097F82630052B0CD878
:10141C0097F826202C4913465B001344DB000B4441
:10142C000C331B78DBB2002BE9D197F82630062B56
:10143C0038D097F82620244913465B001344DB0070
:10144C000B440C3301221A703B6ABB61BB6983F3FA
:10145C00108800BF97F826201B4913465B001344E5
:10146C00DB000B441033FA681A6097F826201649F3
:10147C0013465B001344DB000B440D33FA791A70EE
:10148C0097F82620104913465B001344DB000B44ED
:10149C003A681A60BB6897F826201A70002387F800
:1014AC00273008E03B6A7B617B6983F3108800BFBF
:1014BC00012387F8273097F8273018462C37BD467C
:1014CC005DF8047B704700BFC401002080B586B076
:1014DC0000AF0346FB71EFF31083FB60FB687B618D
:1014EC0072B600BF032003F046F8344B1B68CA22C7
:1014FC005A62324B1B6853225A62FA7930491346AE
:10150C005B001344DB000B440C331B78DBB2022B67
:10151C0042D1FB7900211846FFF706FC294B1B78BA
:10152C00FB74FB7C062B2FD1274B9B6803F4806349
:10153C00B3F5806F07D100BF204B1B68DB6803F04D
:10154C000403002BF8D11D4B1B689A681B4B1B68BE
:10155C0022F480629A6000BF184B1B68DB6803F0B2
:10156C000403002BF8D0154B1B68DB68DAB2134B65
:10157C001B6862F49062DA60144B4FF40022DA605C
:10158C00032003F020F807E0114B1B78DBB2FA7C48
:10159C009A4201D0FFF7E4FC084B1B68FF225A6209
:1015AC00032002F0DAFF7B69BB60BB6883F3108811
:1015BC0000BF00BF1837BD4680BD00BF0805002026
:1015CC00C4010020540200200028004000080058EC
:1015DC005502002080B586B000AF03463960FB7120
:1015EC00FA793B4913465B001344DB000B440C3384
:1015FC001B78DBB2022B03D1FB791846FFF766FF91
:10160C00EFF31083FB60FB687B6172B600BF0320B5
:10161C0002F0B1FF2F4B1B68CA225A622D4B1B687C
:10162C0053225A62FA792A4913465B001344DB00B1
:10163C000B440C3302221A70FA79254913465B00CD
:10164C001344DB000B4408333A681A60FA792049DA
:10165C0013465B001344DB000B4404333A681A60F6
:10166C00FB791846FFF7B6FA03467B821A4B1B78B8
:10167C007B741A4B1B78DBB27A7C9A4202D0FFF750
:10168C006FFC13E0FA79124913465B001344DB003C
:10169C000B44083319687B8AFA79C91A0C4813462B
:1016AC005B001344DB00034408331960094B1B68CF
:1016BC00FF225A62032002F050FF7B69BB60BB68BB
:1016CC0083F3108800BF00BF1837BD4680BD00BF34
:1016DC00C4010020080500205402002055020020FF
:1016EC0080B584B000AFF8600B467A60FB727B6803
:1016FC00984700BF1037BD4680BD000080B584B050
:10170C0000AFB9607B600346FB731346BB81FB7B68
:10171C00002B0CD1084A7B681360084B084A1A60EE
:10172C00BB891A46B968054805F0AEFA00E000BF5F
:10173C0000BF1037BD4680BD64020020A00300200E
:10174C000038014080B582B000AF78607B681B68C0
:10175C001A46094B9A4207D1084B1B68002B05D03F
:10176C00064B1B68984701E000BF00E000BF00BFBC
:10177C000837BD4680BD00BF003801406402002020
:10178C0080B582B000AF78607B681B681A46094B45
:10179C009A4207D1084B1B68002B05D0064B1B68DF
:1017AC00984701E000BF00E000BF00BF0837BD460E
:1017BC0080BD00BF003801406802002080B483B0B7
:1017CC0000AF78604FF0B043D3F8903023F018029C
:1017DC004FF0B0417B681343C1F8903000BF0C3719
:1017EC00BD465DF8047B704780B485B000AF78606F
:1017FC004FF0B0439A6C4FF0B0417B6813438B644D
:10180C004FF0B0439A6C7B681340FB60FB6800BFE1
:10181C001437BD465DF8047B704780B485B000AFCB
:10182C0078604FF0B043DA6C4FF0B0417B681343F3
:10183C00CB644FF0B043DA6C7B681340FB60FB6801
:10184C0000BF1437BD465DF8047B704780B500AF10
:10185C0001F0D2FDFEF778FE00F016F800F084F8E7
:10186C0000F006F900F087F900F068F900F032F9A1
:10187C0000F01AF900F098F800F00EF9FEF772FE7D
:10188C00FEF7E5FFFCE7000080B59AB000AF07F16A
:10189C00200348220021184609F0D8FD3B1D0022E8
:1018AC001A605A609A60DA601A615A619A614FF054
:1018BC00B043DB684FF0B04223F07003D3604FF0BD
:1018CC00B043DB6823F003034FF0B04243F0020354
:1018DC00D36003F05FFA0020FFF770FF214B1B6809
:1018EC0023F4C0631F4A43F4007313601D4B1B6841
:1018FC0003F4C0633B603B6847233B624FF4803387
:10190C007B620123BB624FF48073FB620123BB64D7
:10191C0040233B630023FB6407F12003184603F0CC
:10192C00B5FD0346002B01D000F032F96F237B602C
:10193C000223BB600023FB6000233B6100237B611F
:10194C000023BB610023FB613B1D0121184604F001
:10195C0011F90346002B01D000F01AF900BF6837CB
:10196C00BD4680BD0004005880B594B000AF3B4626
:10197C0050220021184609F069FD4FF440533B609A
:10198C004FF480437B640223BB641023FB643B460F
:10199C00184604F000FD0346002B01D000F0F8F8C7
:1019AC0000BF5037BD4680BD80B586B000AF3B460A
:1019BC0000221A605A609A60DA601A615A61294BE7
:1019CC00294A1A60274B00225A60264B00229A6043
:1019DC00244B0022DA60234B00221A61214B042293
:1019EC005A61204B00221A761E4B00225A761D4B50
:1019FC000122DA611B4B002283F82020194B0022B4
:101A0C009A62184B0022DA62164B002283F83020BF
:101A1C00144B00225A63134B002283F838201148D0
:101A2C0001F034FF0346002B01D000F0B1F80F4B4E
:101A3C003B6006237B600023BB607F23FB60042399
:101A4C003B6100237B613B461946064802F06AF86D
:101A5C000346002B01D000F09BF800BF1837BD46A1
:101A6C0080BD00BF6C020020000004500200300456
:101A7C0080B500AF064B074A1A60054803F004F91D
:101A8C000346002B01D000F083F800BF80BD00BFDF
:101A9C00D0020020000C005880B400AF00BFBD463F
:101AAC005DF8047B7047000080B500AF074B084A17
:101ABC001A60064B00225A60044804F0F3FE0346F9
:101ACC00002B01D000F064F800BF80BDF4040020AE
:101ADC000010005880B500AF164B174A1A60154B12
:101AEC0000225A60134B0F229A60124B47F6FF727A
:101AFC00DA60104B00221A610E4B00229A610D4BDA
:101B0C000022DA610B4B00225A610A4804F000FFF4
:101B1C000346002B01D000F03BF8002200210548C1
:101B2C0004F0F6FF0346002B01D000F031F800BFA3
:101B3C0080BD00BF080500200028004080B500AF24
:101B4C000420FFF751FE0120FFF74EFE0220FFF7A5
:101B5C004BFE00220F210E2002F0E5FC0E2002F0BD
:101B6C00FCFC00220F213A2002F0DDFC3A2002F0AE
:101B7C00F4FC00BF80BD80B500AF0420FFF74DFE24
:101B8C000120FFF74AFE0220FFF747FE00BF80BD91
:101B9C0080B400AF00BFBD465DF8047B7047000009
:101BAC0080B483B000AF7860064B1B6823F007024B
:101BBC0004497B6813430B6000BF0C37BD465DF8CE
:101BCC00047B70470004005880B400AF034B1F2205
:101BDC009A6100BFBD465DF8047B70470004005855
:101BEC0080B400AF074BD3F8883003F48063B3F5AF
:101BFC00806F01D1012300E000231846BD465DF83B
:101C0C00047B70470004005880B400AF074BD3F836
:101C1C00883003F40043B3F5004F01D1012300E0F9
:101C2C0000231846BD465DF8047B7047000400583D
:101C3C0080B400AF4FF0B0431B684FF0B04243F498
:101C4C008033136000BFBD465DF8047B704780B4E1
:101C5C0000AF4FF0B0431B6803F40033B3F5003F03
:101C6C0001D1012300E000231846BD465DF8047B3A
:101C7C00704780B400AF4FF0B0431B684FF0B042D8
:101C8C0043F48073136000BFBD465DF8047B70475E
:101C9C0080B400AF4FF0B0431B6803F48063B3F51E
:101CAC00806F01D1012300E000231846BD465DF88A
:101CBC00047B704780B483B000AF78604FF0B043C2
:101CCC009B6823F003024FF0B0417B6813438B6099
:101CDC0000BF0C37BD465DF8047B704780B400AF85
:101CEC004FF0B0439B6803F00C031846BD465DF8FB
:101CFC00047B704780B483B000AF78604FF0B04382
:101D0C005B6A23F003024FF0B0417B6813434B62D4
:101D1C0000BF0C37BD465DF8047B704780B400AF44
:101D2C00054B1B69044A23F00403136100BFBD4635
:101D3C005DF8047B704700BF00ED00E080B400AF9D
:101D4C00054B1B69044A43F00403136100BFBD46F5
:101D5C005DF8047B704700BF00ED00E080B483B0F9
:101D6C0000AF786039607B683A68203253F82230D3
:101D7C00054A934201D0012300E0002318460C379A
:101D8C00BD465DF8047B70470004008080B485B0CC
:101D9C0000AFF860B9607A607B6843F48061FB68DF
:101DAC00BA6843F8221000BF1437BD465DF8047BB7
:101DBC00704780B500AF01F0B1FB00F035F8FFF7CC
:101DCC0003FF0320FFF7ECFEFFF7B8FF30BF00BFA7
:101DDC0080BD80B500AF01F0B1FB00BF80BD80B508
:101DEC0000AF01F09BFB00F01FF80220FFF7D8FEBC
:101DFC00FFF7A4FF30BF00BF80BD80B500AF00F07F
:101E0C004FF801F09BFB00BF80BD80B500AF01F027
:101E1C0085FBFFF783FF30BF00BF80BD80B500AFEF
:101E2C0001F08CFB00BF80BD80B500AF00BF03216B
:101E3C001948FFF793FF0346002BF8D104211648ED
:101E4C00FFF78CFF0346002B17D1FFF7DDFE03468F
:101E5C00002B04D1FFF7C4FE0346002B15D0002243
:101E6C0004210D48FFF792FF00F052F80B4B1B6852
:101E7C000A4A23F00703136007E000F049F8074B08
:101E8C001B68064A23F00703136000220321024853
:101E9C00FFF77CFF00BF80BD0014005800400058C5
:101EAC0080B500AF002204211748FFF76FFF00BF79
:101EBC0003211548FFF752FF0346002BF8D1FFF71B
:101ECC000DFF0346042B18D1FFF7B2FE0F4B1B6816
:101EDC0023F007030D4A43F00103136000BFFFF723
:101EEC00B6FE0346002BFAD00220FFF7E3FE00BF3C
:101EFC00FFF7F4FE0346082BFAD100220321024817
:101F0C00FFF744FF00BF80BD00140058004000588C
:101F1C0080B500AFFFF7ADFE00BFFFF7B9FE03467B
:101F2C00002BFAD00120FFF7C5FE0020FFF7E2FEE0
:101F3C0000BFFFF7D3FE0346042BFAD100BF80BDD0
:101F4C0080B400AF4FF0B043D3F890304FF0B042B4
:101F5C0043F40043C2F8903000BFBD465DF8047BEB
:101F6C00704780B485B000AF78604FF0B043DA6C46
:101F7C004FF0B0417B681343CB644FF0B043DA6C45
:101F8C007B681340FB60FB6800BF1437BD465DF8EF
:101F9C00047B704780B485B000AF78604FF0B043DD
:101FAC001A6D4FF0B0417B6813430B654FF0B04393
:101FBC001A6D7B681340FB60FB6800BF1437BD468D
:101FCC005DF8047B704780B485B000AF78604FF04B
:101FDC00B0439A6D4FF0B0417B6813438B654FF063
:101FEC00B0439A6D7B681340FB60FB6800BF1437ED
:101FFC00BD465DF8047B704780B500AF4FF4002000
:10200C00FFF7C8FF002200212E2002F08CFA2E20B0
:10201C0002F0A3FA00BF80BD80B59CB000AF786021
:10202C0007F15C0300221A605A609A60DA601A6148
:10203C0007F10C0350220021184609F007FA7B68BF
:10204C001B681C4A934230D14FF48063FB60082319
:10205C003B614FF400337B614FF00073BB614FF079
:10206C000053FB614FF080533B624FF08053BB64D5
:10207C0007F10C03184604F08EF90346002B01D02F
:10208C00FFF786FD4FF40050FFF76BFF0420FFF7BE
:10209C0068FF0123FB6503233B6600237B6607F186
:1020AC005C031946044802F02BFC00BF7037BD4698
:1020BC0080BD00BF000004500008004880B582B00D
:1020CC0000AF78607B681B680D4A934213D14FF4C4
:1020DC008010FFF75FFF002200212C2002F023FA72
:1020EC002C2002F03AFA002200212D2002F01BFADB
:1020FC002D2002F032FA00BF0837BD4680BD00BF6C
:10210C00000C005880B596B000AF786007F108035A
:10211C0050220021184609F099F97B681B680D4A7A
:10212C00934213D14FF40073BB604FF080533B6468
:10213C0007F10803184604F02EF90346002B01D0D2
:10214C00FFF726FD4FF48020FFF724FF00BF583720
:10215C00BD4680BD0010005880B596B000AF7860C9
:10216C0007F1080350220021184609F06FF97B682B
:10217C001B68124A93421DD14FF40063BB604FF4AD
:10218C008073BB6407F10803184604F004F9034696
:10219C00002B01D0FFF7FCFCFFF7D2FE4FF4806060
:1021AC00FFF711FF00220021032002F0BCF90320ED
:1021BC0002F0D3F900BF5837BD4680BD002800405F
:1021CC0080B400AF00BFBD465DF8047B704780B49F
:1021DC0000AFFEE780B400AFFEE780B400AFFEE7CF
:1021EC0080B400AFFEE780B400AF00BFBD465DF821
:1021FC00047B704780B400AF00BFBD465DF8047B24
:10220C00704780B400AF00BFBD465DF8047B7047DB
:10221C0080B500AF01F04AF900BF80BD80B500AFBA
:10222C00FEF738FF00BF80BD80B500AF024802F05A
:10223C0096FA00BF80BD00BF3404002080B500AF0B
:10224C00024804F06DFD00BF80BD00BFA00300205C
:10225C0080B500AF024804F063FD00BF80BD00BF35
:10226C000C03002080B500AF00F04CFE00BF80BD19
:10227C0080B500AF00F07EFE00BF80BD80B500AF22
:10228C0002F0DEFC00BF80BD80B500AF024802F05A
:10229C0066FA00BF80BD00BF9404002080B500AF7B
:1022AC00102002F0B5FC00BF80BD80B500AF01204E
:1022BC0002F0AEFC00BF80BD80B500AF022002F082
:1022CC00A7FC00BF80BD000080B400AF034B1B68AF
:1022DC001846BD465DF8047B704700BF8075FF1F34
:1022EC0080B400AF034B1B68DBB21846BD465DF8EB
:1022FC00047B70478475FF1F80B400AF034B1B68D1
:10230C001B0A1846BD465DF8047B70478475FF1F99
:10231C00B0B590B000AF2C4B3C1D1D460FCD0FC47B
:10232C000FCD0FC40FCD0FC495E8070003C4228056
:10233C0000F074F90121022008F0B2FD234A0021BB
:10234C00042008F00FFF3B1D184607F053FF03460F
:10235C0087F83F3097F83F30002B01D0FFF718FC7F
:10236C0000F072F908F09AFA194B002283F88020D9
:10237C00174B4FF6FF72DA82164A0021012008F043
:10238C00F1FE00F077FB00F0B9FB00F06DFC124B96
:10239C00002212490020FFF71FF80D4B02225A763B
:1023AC000B4B01221A7641F60D0000F0CFFA0C4BC4
:1023BC0080221A800B4BA0221A80012000F012FA06
:1023CC0000BF4037BD46B0BDA8B40008CD9800088A
:1023DC0034050020C1290008B1290008B5050020EA
:1023EC00B8050020BA05002080B58CB000AF78602D
:1023FC00922387F82F307B680133BB62BB6A1B7852
:10240C00FF2B62D0FF2B00F3A680052B02D03E2BB6
:10241C0016D0A0E0BB6A02333B613B69B3F80130D4
:10242C009AB2514BDB8A9A4206D14F4B0022DA8288
:10243C004D4B002283F88020012000F0D3F98DE071
:10244C00BB6A0233FB61FB691B780C2B05D00C2B90
:10245C0037DC012B17D0032B33E0FB690133BB6155
:10246C00414BDB8A07F10E0207F10F01184607F00A
:10247C0014F8034687F82F3097F82F30002B22D111
:10248C00FB7B022B1FE0FB6901337B61364B93F81E
:10249C0081301846FFF71AF8334B93F88030042B31
:1024AC0004D1314B062283F8802003E02E4B052209
:1024BC0083F880207B69B3F801309AB22A4BDA8218
:1024CC0002E000BF4AE000BF48E0BB6A02337B6217
:1024DC007B6A1B889BB2A3F580630A2B3DD801A2B3
:1024EC0052F823F05F250008572500081D25000829
:1024FC005F2500085F2500083125000867250008C6
:10250C005F2500085F250008432500085F250008AB
:10251C00154BDB8A1549184606F076F8034687F802
:10252C002F3017E0104BDB8A184606F092FA034660
:10253C0087F82F300EE00C4BDB8A0121184606F091
:10254C00DCFA034687F82F3004E07B6A02333B62E7
:10255C0000E000BF01E000BF00E000BF012318460F
:10256C003037BD4680BD00BF3405002040E201007D
:10257C0080B582B000AF9223FB7106F046FA034699
:10258C00FB7100BF0837BD4680BD000080B582B02E
:10259C0000AF9223FB71054BDB8A184606F048F915
:1025AC000346FB7100BF0837BD4680BD34050020D3
:1025BC0080B584B002AF9223FB71174BDB8A7A1D76
:1025CC00B91D184606F069FF0346FB71FB79002B19
:1025DC001DD1BB79022B0FD17B79022B0CD10E4B69
:1025EC00D88A0023009301230122002107F050F820
:1025FC000346FB7100BF0AE0074BD88A0023009307
:10260C0002230222002107F043F80346FB7100BFAE
:10261C000837BD4680BD00BF3405002080B582B0B0
:10262C0000AF064B3B60064B7B603B4619460548AA
:10263C0007F02AF900BF0837BD4680BD28000320EB
:10264C004B2A0008132A0008F0B58DB006AF4FF4E2
:10265C0050733B809223FB7506F0FBFE0346FB7523
:10266C0000F030F938613A690621002006F005FEC9
:10267C000346FB753B695A79544B1A723B691A79BC
:10268C00524B5A723B69DA78504B9A723B699A7882
:10269C004E4BDA723B695A784C4B1A733B691A7879
:1026AC004A4B5A734A4A1021182006F0E6FD03469D
:1026BC00FB75484A1021082006F0DFFD0346FB7528
:1026CC001821012006F05EFE0346FB7506F07CFA2D
:1026DC000346FB750023FB73FB7B43F00103FB7389
:1026EC00FB7B002B1FD03C4BBB60BA1DF87BBB1C8B
:1026FC0001933B1D009313460722002105F0EBFFCD
:10270C000346FB75FC88BD88B868FDF73BFD0346A6
:10271C00DAB2BB680093134600222946204606F025
:10272C0056FC0346FB75F88879883B4600930223D8
:10273C00002206F04CFC0346FB750222022100200D
:10274C0006F029FF0346FB75244B01221A70234B1C
:10275C001B78184605F040FE0346FB751F4B012203
:10276C005A701E4B08221A711C4B10225A711B4BAB
:10277C000022DA70194B1A4A9A60184B01229A708F
:10278C00164B9C78154B5D78144B1B79134A527978
:10279C001249C9781148806800260496039002916A
:1027AC0001920093002301222946204605F068FE81
:1027BC000346FB75094B9B78002B03D006F001F9FF
:1027CC000346FB7500BF1C37BD46F0BD080000205A
:1027DC006CB600087CB60008E4B400083405002090
:1027EC0007B2010080B58CB008AF0346FB71922391
:1027FC00FB72FB79012B06D12B4B1B88FB812B4BDE
:10280C001B88BB8105E04FF4C863FB814FF47A63EE
:10281C00BB81274B93F881301846FEF757FEFB79A6
:10282C00022B0DD1224B93F88030012B04D0204B7E
:10283C0093F88030022B03D105F0B0FC0346FB72F9
:10284C001B4AFB7982F88030194B1B7EBA89F989B7
:10285C000020069000200590164804900393164B18
:10286C00029306230193002300930023002005F01C
:10287C00B9FC0346FB7211490E2006F030F80346F2
:10288C00FB72FB7A002B0AD1FB79012B07D1084B89
:10289C0093F881300A491846FEF79CFE00BF00BF32
:1028AC001037BD4680BD00BFB8050020BA0500201A
:1028BC00340500204D0500208CB6000808000020CF
:1028CC0046E0010080B586B000AFFFF7FDFC386133
:1028DC003B69B3F1FF3F23D0FFF70EFDB860FFF764
:1028EC00FFFC78603B69DAB2164B1A703B691B0A25
:1028FC00DAB2144B5A707B68DAB2124B9A70BB681E
:10290C00DAB2104BDA70BB681B0ADAB20D4B1A71D3
:10291C00BB681B0CDAB20B4B5A710A4B7B610BE098
:10292C00002007F03FFCF860FB68002B02D0FB682E
:10293C007B6101E0044B7B617B6918461837BD460F
:10294C0080BD00BF2C05002064B6000880B483B0A5
:10295C0000AF0346FB80124B1B7E1946FB88DAB294
:10296C000F4B0B445A760E4B1B7E0133DAB20C4BD9
:10297C001A76FB881B0A9AB2094B1B7E1946D2B2F7
:10298C00074B0B445A76064B1B7E0133DAB2044BD1
:10299C001A7600BF0C37BD465DF8047B704700BF4C
:1029AC003405002080B500AF0021012008F0FCFBAD
:1029BC0000BF80BD80B500AF0220FFF713FF00BF42
:1029CC0080BD80B582B000AF78600021042008F093
:1029DC00EBFB00BF0837BD4680BD80B582B000AFB1
:1029EC007860012008F04CFC00BF0837BD4680BD64
:1029FC0080B582B000AF7860012008F061FC00BFA8
:102A0C000837BD4680BD80B584B000AF78607B6868
:102A1C00FB60FB685B680833184607F093FF0346BE
:102A2C00FB72FB7A002B03D0FB6801221A7003E0C7
:102A3C00FB6800221A7000BF1037BD4680BD80B500
:102A4C0084B000AF0346FB71FB79002B02D0012B45
:102A5C0006D00BE03F23FB60F86808F0D1FB05E0E3
:102A6C003F23FB60F86808F0EBFB00BF00BF10379A
:102A7C00BD4680BD80B582B000AF074B3B600423E0
:102A8C003B713B46194642F6292006F0D7FE00BFA3
:102A9C000837BD4680BD00BFECB4000880B582B0DD
:102AAC0000AF78607B681B78022B1AD0022B1EDCDF
:102ABC00002B02D0012B07D019E00F4B00229A807B
:102ACC000D4B01221A7313E00B4B5B7B1846FEF780
:102ADC00FDFC094B5B7B40F601011846FEF77AFDC5
:102AEC0006E0054B5B7B1846FEF7F0FC00E000BFF0
:102AFC0000BF0837BD4680BDBC05002080B582B044
:102B0C0000AF1F4A0021022008F02CFB1D4B0022B5
:102B1C001A731C4B04221A701A4942F6382007F01B
:102B2C0013FA184B1F22DA72164BDB7A03F00803E8
:102B3C00002B02D0134B0A229A80124BDB7A03F043
:102B4C001003002B12D00F4B01229A720023FB7141
:102B5C0009E0FB790B4A5B0013444FF48062DA8086
:102B6C00FB790133FB71FB79002BF2D0064B012270
:102B7C0006490020FEF730FC00BF0837BD4680BD7B
:102B8C009D2B0008BC050020052C0008C905002061
:102B9C0080B582B000AF00F037F8034603F00703AE
:102BAC0041337B607B689AB2114B5A80104BDB7AB5
:102BBC0003F00803002B0AD00D4B1B7B002B06D116
:102BCC000B4B9B8805339AB2094B9A8006E0084B55
:102BDC001B7B012B02D1064B00221A73054942F6CE
:102BEC00372007F0B1F900BF0837BD4680BD00BFE4
:102BFC00BC050020BE05002080B500AF00210220DE
:102C0C0008F0D2FA00BF80BD80B400AF034B9B6AC2
:102C1C009BB21846BD465DF8047B70470028004007
:102C2C0080B582B000AF78607B681B78002B02D037
:102C3C00012B0DD012E00B4B9B781846FEF746FC8F
:102C4C00084B9B7845F20B011846FEF7C3FC05E0D8
:102C5C00044B9B781846FEF739FC00BF00BF0837C1
:102C6C00BD4680BDCC05002080B500AF064A0021D2
:102C7C00022008F077FA054B012205490020FEF7E7
:102C8C00ABFB00BF80BD00BFA12C0008D52C0008F9
:102C9C00CE05002080B582B000AF00F01DF80346D1
:102CAC0003F0070341337B607B689AB2054B1A80B3
:102CBC00044942F66F2007F043FA00BF0837BD46BF
:102CCC0080BD00BFCC05002080B500AF00210220E4
:102CDC0008F06AFA00BF80BD80B400AF034B9B6A5A
:102CEC009BB21846BD465DF8047B70470028004037
:102CFC0080B400AF054BDB68044A43F40043D36057
:102D0C0000BFBD465DF8047B704700BF000400584F
:102D1C0080B483B000AF7860064BD3F8D42005495B
:102D2C007B681343C1F8D43000BF0C37BD465DF847
:102D3C00047B70470008005880B483B000AF786003
:102D4C00054B1A6A04497B6813430B6200BF0C37AE
:102D5C00BD465DF8047B70470008005880B485B010
:102D6C0000AF78604FF0B0431A6D4FF0B0417B6804
:102D7C0013430B654FF0B0431A6D7B681340FB6037
:102D8C00FB6800BF1437BD465DF8047B704780B408
:102D9C0085B000AF78604FF0B043D3F850214FF0BE
:102DAC00B0417B681343C1F850314FF0B043D3F8B6
:102DBC0050217B681340FB60FB6800BF1437BD4695
:102DCC005DF8047B704780B483B000AF78607B689B
:102DDC001B6843F480327B681A6000BF0C37BD4619
:102DEC005DF8047B704780B483B000AF78607B687B
:102DFC001B6843F001027B681A6000BF0C37BD46AC
:102E0C005DF8047B704780B483B000AF78603960A4
:102E1C007B685A683B681B04DB431A407B685A602A
:102E2C0000BF0C37BD465DF8047B704780B483B09F
:102E3C0000AF786039607B685A683B681B041A43A2
:102E4C007B685A6000BF0C37BD465DF8047B704749
:102E5C0080B483B000AF786039607B685A683B6897
:102E6C00DB431A407B685A6000BF0C37BD465DF8E7
:102E7C00047B704780B483B000AF786039607B68A6
:102E8C003A689A6000BF0C37BD465DF8047B70470A
:102E9C0080B483B000AF786039603B681A047B68FB
:102EAC009A6000BF0C37BD465DF8047B704780B458
:102EBC0083B000AF786039607B68DA683B68134098
:102ECC003A689A4201D1012300E0002318460C37DE
:102EDC00BD465DF8047B704780B483B000AF78606A
:102EEC0039607B68DA693B6813403A689A4201D1D1
:102EFC00012300E0002318460C37BD465DF8047B27
:102F0C007047000080B500AF02211948FFF7E4FFBD
:102F1C000346002B09D0164B5B68DB4303F002031E
:102F2C00002B02D000F0DAF81FE001211048FFF767
:102F3C00D3FF0346002B08D00D4B5B6803F0010355
:102F4C00002B02D100F08EF80FE008210848FFF7A3
:102F5C00C3FF0346002B09D0054B5B68DB4303F032
:102F6C000803002B02D000F005F900BF00BF80BDA4
:102F7C00000C005880B500AF02211A48FFF797FFEC
:102F8C000346002B09D1174B5B68DB4303F400337A
:102F9C00002B02D000F096F820E008211148FFF732
:102FAC0086FF0346002B09D10E4B5B68DB4303F411
:102FBC000023002B02D000F0BFF80FE020210948BD
:102FCC00FFF775FF0346002B09D1064B5B68DB430B
:102FDC0003F40013002B02D000F050F800BF00BF28
:102FEC0080BD00BF000C005880B500AF4FF48010BE
:102FFC00FFF7CDFE4FF40070FFF79EFE4FF400700C
:10300C00FFF786FE40BF20BFFFF772FE00BF80BDFA
:10301C0080B500AF4FF48010FFF7A0FE0648FFF715
:10302C00E2FE0548FFF7CFFE2C2001F096FA2D208A
:10303C0001F093FA00BF80BD000C005880B500AFC2
:10304C0001210248FFF704FF00BF80BD000C0058AF
:10305C0080B500AF01210248FFF71AFF00BF80BD09
:10306C00000C005880B500AF07F050FD012102485C
:10307C00FFF700FF00BF80BD000C005880B500AF0B
:10308C0020210348FFF7D2FE07F070FD00BF80BD82
:10309C00000C005880B500AF02210248FFF7D8FEA3
:1030AC0000BF80BD000C005880B500AF0221044861
:1030BC00FFF7EEFE02210248FFF7A5FE00BF80BD20
:1030CC00000C005880B500AF02210348FFF7AEFE9C
:1030DC0007F09CFD00BF80BD000C005880B500AF10
:1030EC0007F0AAFD02210248FFF7C4FE00BF80BD15
:1030FC00000C005880B582B000AF786008210C48F5
:10310C00FFF7D5FE0346002B07D00A4A7B681360F5
:10311C0008210748FFF777FE06E07B6898470821EF
:10312C000348FFF7B5FE00BF0837BD4680BD00BFA2
:10313C00000C0058D005002080B500AF08210648CF
:10314C00FFF774FE054B1B68984708210248FFF7F0
:10315C009FFE00BF80BD00BF000C0058D0050020B2
:10316C0080B500AF08210248FFF772FE00BF80BD9A
:10317C00000C005880B500AF07F006FE082102488D
:10318C00FFF778FE00BF80BD000C0058D458C45027
:10319C000433C4188C42F9D370470360043088425E
:1031AC00FBD370470C48854600F0B0F80B480C492F
:1031BC000C4A0023FFF7EDFF0B480C490023FFF7E7
:1031CC00EEFF0B480B490023FFF7E9FF08F00CF961
:1031DC00FEF73CFBFEE70000000003200800002087
:1031EC003800002038B7000894000020EC060020BE
:1031FC00E4010320670A0320FEE780B485B000AF2A
:10320C0078604FF0B043DA6C4FF0B0417B681343F9
:10321C00CB644FF0B043DA6C7B681340FB60FB6807
:10322C0000BF1437BD465DF8047B704780B588B08D
:10323C0000AF03460A46FB711346BB7107F10C0342
:10324C0000221A605A609A60DA601A61FB79002BCE
:10325C0003D10420FFF7D1FF0CE0FB79012B03D144
:10326C000820FFF7CAFF05E0FB79022B02D10820EA
:10327C00FFF7C3FFBB79002B17D1FB79204A32F83B
:10328C001330FB6000233B6101237B610223BB6194
:10329C00FB791C4A52F8233007F10C0211461846F0
:1032AC0001F02EFB0120FDF7ADFABB79012B23D1E8
:1032BC00FB79134A32F81330FB6001237B614FF426
:1032CC0004133B61FB790F4A52F8233007F10C02CF
:1032DC001146184601F014FBFB790B4AD35C5BB228
:1032EC0000220F21184601F01EF9FB79064AD35C27
:1032FC005BB2184601F031F900BF2037BD4680BDE6
:10330C0094B60008180000209CB6000880B400AFEA
:10331C00264B00229A60254BD3F88830234A43F47D
:10332C007003C2F888304FF0B0431B684FF0B042C6
:10333C0043F0010313604FF0B0434FF4E0229A6066
:10334C004FF0B0431A684FF0B041194B13400B606B
:10335C004FF0B043D3F894304FF0B04223F0050354
:10336C00C2F894304FF0B043D3F898304FF0B042DD
:10337C0023F00103C2F898304FF0B0430D4ADA60E5
:10338C004FF0B0430B4A1A614FF0B0431B684FF03B
:10339C00B04223F4802313604FF0B04300229A61B3
:1033AC0000BFBD465DF8047B704700BF00ED00E038
:1033BC00FBFEF6FA0010042280B400AF054B5B68EC
:1033CC00044A43F00103536000BFBD465DF8047B23
:1033DC00704700BF002004E080B400AF054B5B6871
:1033EC00044A43F00203536000BFBD465DF8047B02
:1033FC00704700BF002004E080B582B000AF00230E
:10340C00FB710C4B1B680B4A43F480731360032055
:10341C0001F07EF8002000F00FF80346002B02D0DC
:10342C000123FB7101E0FEF7E7FDFB791846083735
:10343C00BD4680BD0040005880B584B000AF7860B8
:10344C000023FB73174B1B78002B24D002F03EFD9E
:10345C000246144B1B7819464FF47A73B3FBF1F305
:10346C00B2FBF3F3184601F094F80346002B0FD18E
:10347C007B680F2B09D8002279684FF0FF3001F0E0
:10348C0052F8094A7B68136007E00123FB7304E0E0
:10349C000123FB7301E00123FB73FB7B1846103700
:1034AC00BD4680BD2C0000202800002080B400AF59
:1034BC00064B1B781A46064B1B681344044A1360D0
:1034CC0000BFBD465DF8047B704700BF2C00002098
:1034DC00D405002080B400AF034B1B681846BD46D2
:1034EC005DF8047B704700BFD405002080B400AFAA
:1034FC00034B1B681846BD465DF8047B704700BF44
:10350C002800002080B400AF034B1B781846BD4642
:10351C005DF8047B704700BF2C00002080B400AF26
:10352C00054B1B68044A23F00203136000BFBD4621
:10353C005DF8047B704700BF10E000E080B400AF82
:10354C00054B1B68044A43F00203136000BFBD46E1
:10355C005DF8047B704700BF10E000E080B500AF61
:10356C00FFF72AFF00BF80BD80B500AFFFF734FF27
:10357C0000BF80BD80B483B000AF786039607B68D9
:10358C009B6823F47C123B681A437B689A6000BFEB
:10359C000C37BD465DF8047B704780B483B000AF38
:1035AC00786039607B689B6823F0E0723B681A4353
:1035BC007B689A6000BF0C37BD465DF8047B704792
:1035CC0080B483B000AF78607B689B6803F0E073D5
:1035DC0018460C37BD465DF8047B704780B487B045
:1035EC0000AFF860B9607A603B60FB6860331A46E4
:1035FC00BB689B0013447B617B691A68084B1340C2
:10360C007A6802F0F8413A680A43134343F00042E7
:10361C007B691A6000BF1C37BD465DF8047B7047A0
:10362C0000F0FF0380B485B000AF786039607B6830
:10363C0060331A463B689B001344FB60FB681B68B5
:10364C0003F0F84318461437BD465DF8047B704709
:10365C0080B487B000AFF860B9607A60FB68603303
:10366C001A46BB689B0013447B617B691B6823F083
:10367C0000427B681A437B691A6000BF1C37BD4649
:10368C005DF8047B704780B487B000AFF860B96018
:10369C007A60FB6830331A46BB681B0A9B0003F048
:1036AC000C0313447B617B691A68BB6803F01F032E
:1036BC001F2101FA03F3DB431A407B689B0E03F0D6
:1036CC001F01BB6803F01F0301FA03F31A437B6964
:1036DC001A6000BF1C37BD465DF8047B704780B490
:1036EC0087B000AFF860B9607A60FB6814331A4693
:1036FC00BB685B0E9B0003F0040313447B617B6986
:10370C001A68BB681B0D03F01F03072101FA03F3B2
:10371C00DB431A40BB681B0D03F01F03796801FAE9
:10372C0003F31A437B691A6000BF1C37BD465DF872
:10373C00047B704780B485B000AFF860B9607A60E4
:10374C00FB68D3F8B020BB68C3F31203DB431A4009
:10375C007B6803F018030849D940BB680B40C3F3DE
:10376C0012031A43FB68C3F8B02000BF1437BD46E0
:10377C005DF8047B704700BFFFFF070080B483B087
:10378C0000AF78607B689B6823F0204323F03F03F5
:10379C007A68936000BF0C37BD465DF8047B7047B8
:1037AC0080B483B000AF78607B689B6803F00053F3
:1037BC00B3F1005F01D1012300E0002318460C3760
:1037CC00BD465DF8047B704780B483B000AF786071
:1037DC007B689B6823F0104323F03F0343F0805237
:1037EC007B689A6000BF0C37BD465DF8047B704760
:1037FC0080B483B000AF78607B689B6803F0805323
:10380C00B3F1805F01D1012300E0002318460C378F
:10381C00BD465DF8047B704780B483B000AF786020
:10382C007B689B6803F00103012B01D1012300E0AD
:10383C00002318460C37BD465DF8047B704780B4F6
:10384C0083B000AF78607B689B6803F00403042BA3
:10385C0001D1012300E0002318460C37BD465DF86A
:10386C00047B704780B483B000AF78607B689B6842
:10387C0003F00803082B01D1012300E000231846B4
:10388C000C37BD465DF8047B7047000080B588B0EE
:10389C0000AF78600023FB770023BB610023BB6083
:1038AC007B68002B01D101232EE17B681B69002B67
:1038BC007B685B6D002B09D17868FEF7ADFB7B68EC
:1038CC0000229A657B68002283F850207B681B6875
:1038DC001846FFF765FF0346002B04D07B681B6876
:1038EC001846FFF74BFF7B681B681846FFF780FFF5
:1038FC000346002B15D17B681B681846FFF764FF45
:10390C00834B1B689B09834AA2FB03239B0901334E
:10391C005B00BB6002E0BB68013BBB60BB68002B7B
:10392C00F9D17B681B681846FFF762FF0346002B32
:10393C000DD17B685B6D43F010027B685A657B6828
:10394C009B6D43F001027B689A650123FB777B68D2
:10395C001B681846FFF773FF78617B685B6D03F09B
:10396C001003002B40F0C7807B69002B40F0C38014
:10397C007B685B6D23F4817343F002027B685A65AC
:10398C007B681B681846FFF747FF0346002B0BD1DB
:10399C006148FFF741FF0346002B05D17B685B684C
:1039AC0019465E48FFF7E6FD7B685B7E5A037B6831
:1039BC005B6B1A437B68DB681A437B689B681A4312
:1039CC007B6893F820301B041343BA691343BB6123
:1039DC007B6893F82030012B06D17B685B6A013B36
:1039EC005B04BA691343BB617B689B6A002B09D0EB
:1039FC007B689B6A03F470727B68DB6A1343BA6959
:103A0C001343BB617B681B68DA68454B13407A68CB
:103A1C001268B9690B43D3607B681B681846FFF7C3
:103A2C000EFF38617B681B681846FFF71BFFF860B8
:103A3C003B69002B3DD1FB68002B3AD17B681B7E88
:103A4C009A037B6893F830305B001343BB617B684F
:103A5C001B68DB6823F4804323F002037A68126846
:103A6C00B9690B43D3607B6893F83830012B18D1BC
:103A7C007B681B681B6923F4FF6323F004037A68DB
:103A8C00D16B7A68126C11437A68526C11437A6864
:103A9C00926C0A431A437B681B6842F001021A615C
:103AAC0007E07B681B681A697B681B6822F00102BF
:103ABC001A617B681B69012B0CD17B681B681B6B23
:103ACC0023F00F017B68DB695A1E7B681B680A4375
:103ADC001A6307E07B681B681A6B7B681B6822F013
:103AEC000F021A637B685B6D23F0030343F0010242
:103AFC007B685A6507E07B685B6D43F010027B685E
:103B0C005A650123FB77FB7F18462037BD4680BDE5
:103B1C0024000020632D3E050000045000030450D7
:103B2C0007C0F0FF80B5B6B000AF786039600023F5
:103B3C0087F8D7300023FB607B6893F85030012B5B
:103B4C0001D102239FE37B68012283F850207B681C
:103B5C001B681846FFF773FE0346002B40F0848366
:103B6C007B6818683B6859683B681B681A46FFF706
:103B7C008AFD7B681B681846FFF761FEC7F8D0000A
:103B8C007B681B681846FFF76DFEC7F8CC00D7F8AA
:103B9C00D030002B40F0A681D7F8CC30002B40F071
:103BAC00A1817B6818683B6819683B689B681A465A
:103BBC00FFF795FD3B685A697B681B68DB68DB087F
:103BCC0003F003035B0002FA03F3C7F8C8303B6849
:103BDC001B69042B0AD07B6818683B6819693B6821
:103BEC001A68D7F8C830FFF7F9FC7BE17B681B68D3
:103BFC0000211846FFF716FD0346C3F31203002BF2
:103C0C000AD17B681B6800211846FFF70BFD0346A1
:103C1C009B0E03F01F021EE07B681B6800211846F8
:103C2C00FFF700FD0346C7F8BC30D7F8BC3093FA59
:103C3C00A3F3C7F8B830D7F8B830C7F8C030D7F806
:103C4C00C030002B01D1202304E0D7F8C030B3FAE8
:103C5C0083F3DBB21A463B681B68C3F31203002BD9
:103C6C0005D13B681B689B0E03F01F0318E03B68F3
:103C7C001B68C7F8B030D7F8B03093FAA3F3C7F885
:103C8C00AC30D7F8AC30C7F8B430D7F8B430002B20
:103C9C0001D1202304E0D7F8B430B3FA83F3DBB2BC
:103CAC009A4206D17B681B68002200211846FFF758
:103CBC00CFFC7B681B6801211846FFF7B3FC034659
:103CCC00C3F31203002B0AD17B681B680121184631
:103CDC00FFF7A8FC03469B0E03F01F021EE07B6857
:103CEC001B6801211846FFF79DFC0346C7F8A4305A
:103CFC00D7F8A43093FAA3F3C7F8A030D7F8A030C4
:103D0C00C7F8A830D7F8A830002B01D1202304E045
:103D1C00D7F8A830B3FA83F3DBB21A463B681B68BA
:103D2C00C3F31203002B05D13B681B689B0E03F0F9
:103D3C001F0318E03B681B68C7F89830D7F8983019
:103D4C0093FAA3F3C7F89430D7F89430C7F89C30A3
:103D5C00D7F89C30002B01D1202304E0D7F89C30FD
:103D6C00B3FA83F3DBB29A4206D17B681B6800225C
:103D7C0001211846FFF76CFC7B681B680221184672
:103D8C00FFF750FC0346C3F31203002B0AD17B68E8
:103D9C001B6802211846FFF745FC03469B0E03F0F7
:103DAC001F021EE07B681B6802211846FFF73AFCD5
:103DBC000346C7F88C30D7F88C3093FAA3F3C7F8C6
:103DCC008830D7F88830C7F89030D7F89030002B6F
:103DDC0001D1202304E0D7F89030B3FA83F3DBB29F
:103DEC001A463B681B68C3F31203002B05D13B68D2
:103DFC001B689B0E03F01F0316E03B681B68C7F89B
:103E0C008030D7F8803093FAA3F3FB67FB6FC7F8C9
:103E1C008430D7F88430002B01D1202304E0D7F86C
:103E2C008430B3FA83F3DBB29A4206D17B681B6809
:103E3C00002202211846FFF70BFC7B681B6803214C
:103E4C001846FFF7EFFB0346C3F31203002B0AD10E
:103E5C007B681B6803211846FFF7E4FB03469B0EA7
:103E6C0003F01F0217E07B681B6803211846FFF75D
:103E7C00D9FB03467B677B6F93FAA3F33B673B6FDE
:103E8C00BB67BB6F002B01D1202303E0BB6FB3FAE0
:103E9C0083F3DBB21A463B681B68C3F31203002B97
:103EAC0005D13B681B689B0E03F01F0311E03B68B8
:103EBC001B68BB66BB6E93FAA3F37B667B6EFB66DB
:103ECC00FB6E002B01D1202303E0FB6EB3FA83F3CE
:103EDC00DBB29A4206D17B681B680022032118468C
:103EEC00FFF7B6FB7B681B681846FFF795FC03468B
:103EFC00002B40F0C2817B6818683B6819683B68EE
:103F0C00DB681A46FFF716FC3B68DB688E4A934267
:103F1C0040F030817B6818683B681B68C3F3120360
:103F2C00002B0BD13B681B689B0E013303F01F0366
:103F3C00092B94BF01230023DBB219E03B681B68FB
:103F4C00FB65FB6D93FAA3F3BB65BB6D3B663B6EE8
:103F5C00002B01D1202303E03B6EB3FA83F3DBB2D9
:103F6C00013303F01F03092B94BF01230023DBB2A1
:103F7C00002B79D03B681B68C3F31203002B07D1CD
:103F8C003B681B689B0E01339B0603F0F84215E05F
:103F9C003B681B683B653B6D93FAA3F3FB64FB6CBE
:103FAC007B657B6D002B01D1202303E07B6DB3FA85
:103FBC0083F3DBB201339B0603F0F8423B681B68CA
:103FCC00C3F31203002B09D13B681B689B0E013312
:103FDC0003F01F03012101FA03F317E03B681B6890
:103FEC007B647B6C93FAA3F33B643B6CBB64BB6C50
:103FFC00002B01D1202303E0BB6CB3FA83F3DBB2BB
:10400C00013303F01F03012101FA03F342EA030118
:10401C003B681B68C3F31203002B0AD13B681B6877
:10402C009B0E013303F01F0213465B0013441B0568
:10403C0018E03B681B68BB63BB6B93FAA3F37B6311
:10404C007B6BFB63FB6B002B01D1202303E0FB6B31
:10405C00B3FA83F3DBB2013303F01F0213465B00A8
:10406C0013441B050B4380E03B681B68C3F312032E
:10407C00002B07D13B681B689B0E01339B0603F09A
:10408C00F84215E03B681B68FB62FB6A93FAA3F3EA
:10409C00BB62BB6A3B633B6B002B01D1202303E06B
:1040AC003B6BB3FA83F3DBB201339B0603F0F842AC
:1040BC003B681B68C3F31203002B09D13B681B68D8
:1040CC009B0E013303F01F03012101FA03F317E0E8
:1040DC003B681B683B623B6A93FAA3F3FB61FB6989
:1040EC007B627B6A002B01D1202303E07B6AB3FA4D
:1040FC0083F3DBB2013303F01F03012101FA03F355
:10410C0042EA03013B681B68C3F31203002B0DD179
:10411C003B681B689B0E013303F01F0213465B00C8
:10412C0013441E3B1B0543F000731DE03B681B68EA
:10413C007B617B6993FAA3F33B613B69BB61BB6910
:10414C00002B03D1202305E000007F40BB69B3FAAC
:10415C0083F3DBB2013303F01F0213465B001344FD
:10416C001E3B1B0543F000730B433A6892681946DB
:10417C00FFF7B5FA3B681A68454B1340002B7CD00F
:10418C004448FFF71DFAC7F8C4004348FFF744FB47
:10419C000346002B5ED13B681B68404A934227D1F3
:1041AC00D7F8C43003F40003002B21D17B681B68C3
:1041BC00394A934261D1D7F8C43043F4000319460D
:1041CC003448FFF7EAF9364B1B689B09354AA2FBCA
:1041DC0003239B095A1C13465B0013449B00FB6092
:1041EC0002E0FB68013BFB60FB68002BF9D144E06B
:1041FC003B681B682C4A934213D1D7F8C43003F0A8
:10420C008073002B0DD17B681B68234A934234D1F9
:10421C00D7F8C43043F0807319461E48FFF7BDF938
:10422C002BE03B681B68214A934226D1D7F8C43057
:10423C0003F48003002B20D17B681B68164A934241
:10424C001BD1D7F8C43043F4800319461148FFF74B
:10425C00A4F912E07B685B6D43F020027B685A6521
:10426C00012387F8D73008E07B685B6D43F02002B0
:10427C007B685A65012387F8D7307B68002283F866
:10428C00502097F8D7301846D837BD4680BD00BFB0
:10429C00000008800003045000000450000052C7C6
:1042AC0024000020632D3E05000084CB010000801B
:1042BC0080B485B000AF78607B6803F00703FB60C7
:1042CC000C4BDB68BB60BA684FF6FF031340BB6056
:1042DC00FB681A02BB68134343F0BF6343F400331B
:1042EC00BB60044ABB68D36000BF1437BD465DF8A1
:1042FC00047B704700ED00E080B400AF044BDB683A
:10430C001B0A03F007031846BD465DF8047B704793
:10431C0000ED00E080B483B000AF0346FB7197F969
:10432C000730002B0BDBFB7903F01F02074997F9D1
:10433C0007305B09012000FA02F241F8232000BF8C
:10434C000C37BD465DF8047B704700BF00E100E010
:10435C0080B483B000AF0346FB7197F90730002B94
:10436C0012DBFB7903F01F020A4997F907305B094E
:10437C00012000FA02F2203341F82320BFF34F8FC3
:10438C0000BFBFF36F8F00BF00BF0C37BD465DF899
:10439C00047B704700E100E080B483B000AF0346BB
:1043AC00FB7197F90730002B0CDBFB7903F01F0234
:1043BC00074997F907305B09012000FA02F24033F4
:1043CC0041F8232000BF0C37BD465DF8047B7047D5
:1043DC0000E100E080B483B000AF0346FB7197F9B5
:1043EC000730002B0CDBFB7903F01F02074997F910
:1043FC0007305B09012000FA02F2603341F82320F8
:10440C0000BF0C37BD465DF8047B704700E100E04F
:10441C0080B483B000AF03463960FB7197F9073065
:10442C00002B0ADB3B68DAB20C4997F90730120112
:10443C00D2B20B4483F800230AE03B68DAB2084995
:10444C00FB7903F00F03043B1201D2B20B441A7632
:10445C0000BF0C37BD465DF8047B704700E100E0FF
:10446C0000ED00E080B489B000AFF860B9607A600C
:10447C00FB6803F00703FB61FB69C3F10703042B23
:10448C0028BF0423BB61FB690433062B02D9FB69EB
:10449C00033B00E000237B614FF0FF32BB6902FA63
:1044AC0003F3DA43BB681A407B699A404FF0FF3143
:1044BC007B6901FA03F3D9437B680B40134318461D
:1044CC002437BD465DF8047B7047000080B582B090
:1044DC0000AF78607B68013BB3F1807F01D301238F
:1044EC000FE00A4A7B68013B53600F214FF0FF300D
:1044FC00FFF78EFF054B00229A60044B07221A60CF
:10450C00002318460837BD4680BD00BF10E000E010
:10451C0080B582B000AF78607868FFF7C9FE00BF45
:10452C000837BD4680BD80B586B000AF0346B96084
:10453C007A60FB73FFF7E0FE78617A68B968786996
:10454C00FFF790FF024697F90F3011461846FFF718
:10455C005FFF00BF1837BD4680BD80B582B000AF8D
:10456C000346FB7197F907301846FFF7D3FE00BFDF
:10457C000837BD4680BD80B582B000AF0346FB71E5
:10458C0097F907301846FFF7E3FE00BF0837BD4622
:10459C0080BD80B582B000AF78607868FFF796FF79
:1045AC00034618460837BD4680BD80B582B000AFC3
:1045BC000346FB7197F907301846FFF7EDFE00BF75
:1045CC000837BD4680BD80B582B000AF0346FB7195
:1045DC0097F907301846FFF7FDFE00BF0837BD46B8
:1045EC0080BD80B483B000AF78607B68002B01D1B4
:1045FC0001234FE07B6893F82530DBB2022B08D007
:10460C007B680422DA637B68002283F82420012370
:10461C0040E07B681B681A687B681B6822F00E02FE
:10462C001A607B689B6C1A687B689B6C22F48072A6
:10463C001A607B681B681A687B681B6822F0010291
:10464C001A607B685B6C03F01C027B681B6C01219D
:10465C0001FA02F25A607B68DB6C7A68126D5A6060
:10466C007B685B6D002B0CD07B685B6D1A687B687C
:10467C005B6D22F480721A607B689B6D7A68D26DD8
:10468C005A607B68012283F825207B68002283F81E
:10469C002420002318460C37BD465DF8047B704778
:1046AC0080B584B000AF78600023FB737B6893F80F
:1046BC002530DBB2022B05D07B680422DA630123A0
:1046CC00FB7347E07B681B681A687B681B6822F0E9
:1046DC000E021A607B681B681A687B681B6822F0E4
:1046EC0001021A607B689B6C1A687B689B6C22F4D5
:1046FC0080721A607B685B6C03F01C027B681B6C1D
:10470C00012101FA02F25A607B68DB6C7A68126D47
:10471C005A607B685B6D002B0CD07B685B6D1A68F4
:10472C007B685B6D22F480721A607B689B6D7A6883
:10473C00D26D5A607B68012283F825207B680022A9
:10474C0083F824207B689B6B002B03D07B689B6BCE
:10475C0078689847FB7B18461037BD4680BD80B5FE
:10476C0084B000AF78607B681B6C1B68FB607B6857
:10477C001B681B68BB607B685B6C03F01C0304222A
:10478C009A40FB681340002B26D0BB6803F004034F
:10479C00002B21D07B681B681B6803F02003002BC7
:1047AC0007D17B681B681A687B681B6822F00402BF
:1047BC001A607B685B6C03F01C027B681B6C042129
:1047CC0001FA02F25A607B681B6B002B71D07B687C
:1047DC001B6B786898476CE07B685B6C03F01C0380
:1047EC0002229A40FB681340002B2ED0BB6803F0CA
:1047FC000203002B29D07B681B681B6803F0200385
:10480C00002B0BD17B681B681A687B681B6822F035
:10481C000A021A607B68012283F825207B685B6C96
:10482C0003F01C027B681B6C022101FA02F25A6035
:10483C007B68002283F824207B68DB6A002B38D04D
:10484C007B68DB6A7868984733E07B685B6C03F0C5
:10485C001C0308229A40FB681340002B2AD0BB682B
:10486C0003F00803002B25D07B681B681A687B6853
:10487C001B6822F00E021A607B685B6C03F01C0252
:10488C007B681B6C012101FA02F25A607B680122E1
:10489C00DA637B68012283F825207B68002283F889
:1048AC0024207B685B6B002B04D07B685B6B786887
:1048BC00984700BF00BF1037BD4680BD80B487B09D
:1048CC0000AF78607B681B681B0C03F001037B61F5
:1048DC007B681B6803F01F03012202FA03F33B61A0
:1048EC007B695B0103F1B04303F60803FB60FB68D3
:1048FC003A691A6000BF1C37BD465DF8047B7047EF
:10490C0080B487B000AF7860396000237B614CE1E4
:10491C003B681A6801217B6901FA03F31340FB60C1
:10492C00FB68002B00F03E813B685B6803F00303DF
:10493C00012B05D03B685B6803F00303022B30D1DD
:10494C007B689B683B617B695B00032202FA03F383
:10495C00DB433A6913403B613B68DA687B695B0077
:10496C0002FA03F33A6913433B617B683A699A6034
:10497C007B685B683B6101227B6902FA03F3DB43D2
:10498C003A6913403B613B685B681B0903F0010209
:10499C007B6902FA03F33A6913433B617B683A691A
:1049AC005A603B685B6803F00303032B17D07B68EA
:1049BC00DB683B617B695B00032202FA03F3DB4398
:1049CC003A6913403B613B689A687B695B0002FA69
:1049DC0003F33A6913433B617B683A69DA603B68DD
:1049EC005B6803F00303022B23D17B69DA087B6835
:1049FC00083253F822303B617B6903F007039B00BC
:104A0C000F2202FA03F3DB433A6913403B613B6824
:104A1C001A697B6903F007039B0002FA03F33A69F6
:104A2C0013433B617B69DA087B680832396943F8C8
:104A3C0022107B681B683B617B695B00032202FAD6
:104A4C0003F3DB433A6913403B613B685B6803F05B
:104A5C0003027B695B0002FA03F33A6913433B617F
:104A6C007B683A691A603B685B6803F44033002B3F
:104A7C0000F09880544A7B699B08023352F823302B
:104A8C003B617B6903F003039B000F2202FA03F3E3
:104A9C00DB433A6913403B617B68B3F1904F19D00B
:104AAC007B684A4A934213D07B68494A93420DD0A3
:104ABC007B68484A934207D07B68474A934201D1AE
:104ACC00042308E0072306E0032304E0022302E0AA
:104ADC00012300E000237A6902F003029200934064
:104AEC003A6913433B6138497B699B0802333A6945
:104AFC0041F82320394B1B683B61FB68DB433A6967
:104B0C0013403B613B685B6803F48013002B03D0BC
:104B1C003A69FB6813433B61304A3B6913602F4B86
:104B2C005B683B61FB68DB433A6913403B613B6864
:104B3C005B6803F40013002B03D03A69FB68134342
:104B4C003B61264A3B695360244BD3F880303B6170
:104B5C00FB68DB433A6913403B613B685B6803F4D9
:104B6C008033002B03D03A69FB6813433B611B4A2B
:104B7C003B69C2F88030194BD3F884303B61FB6839
:104B8C00DB433A6913403B613B685B6803F40033D9
:104B9C00002B03D03A69FB6813433B610F4A3B6916
:104BAC00C2F884307B6901337B613B681A687B698E
:104BBC0022FA03F3002B7FF4ABAE00BF00BF1C370F
:104BCC00BD465DF8047B70470000014000040048BE
:104BDC0000080048000C004800100048000800586D
:104BEC0080B483B000AF78600B467B8013467B703B
:104BFC007B78002B03D07A887B689A6102E07A88F4
:104C0C007B689A6200BF0C37BD465DF8047B704729
:104C1C0080B582B000AF0346FB80084BDA68FB8896
:104C2C001340002B06D0054AFB88D360FB8818463E
:104C3C00FBF74AFE00BF0837BD4680BD0008005890
:104C4C0080B582B000AF0A4BDB687B60084B1A68FA
:104C5C007B68DB43064913400B60054A7B68536055
:104C6C00786800F007F800BF0837BD4680BD00BF6C
:104C7C000015005880B483B000AF786000BF0C37CB
:104C8C00BD465DF8047B704780B584B000AF78609A
:104C9C000023FB737B68002B1ED0134BBB607B681F
:104CAC0093F83830DBB2002B02D17868FDF706FAA6
:104CBC00B86800F05BF8BB681B6843F00112BB6876
:104CCC001A60786800F02CF87B6800225A637B68C5
:104CDC00012283F8382001E00123FB73FB7B18468B
:104CEC001037BD4680BD00BF000C005880B485B0A5
:104CFC0000AFF860B9601346FB7100BF1437BD46B6
:104D0C005DF8047B704780B485B000AFF860B96083
:104D1C001346FB7100BF1437BD465DF8047B70472A
:104D2C0080B485B000AF78600023FB600FE07A6838
:104D3C00FB689B0013440B4A5A607A68FB68063385
:104D4C009B001344084A5A60FB680133FB60FB6804
:104D5C00052BECD900BF00BF1437BD465DF8047BB2
:104D6C00704700BFF94C0008134D000880B483B0A5
:104D7C0000AF78607B6800221A607B684FF03F12AE
:104D8C005A607B683F229A6000BF0C37BD465DF8C5
:104D9C00047B704780B400AF054B1B68044A43F496
:104DAC008073136000BFBD465DF8047B704700BF85
:104DBC000004005880B400AF044B1B6803F4C063BC
:104DCC001846BD465DF8047B704700BF00040058D0
:104DDC0080B400AF4FF0B0431B6803F48013B3F5FD
:104DEC00801F01D1012300E000231846BD465DF869
:104DFC00047B704780B400AF4FF0B0431B684FF09A
:104E0C00B04243F48033136000BFBD465DF8047BB1
:104E1C00704780B400AF4FF0B0431B684FF0B04206
:104E2C0023F48033136000BFBD465DF8047B7047EC
:104E3C0080B400AF4FF0B0431B6803F40033B3F5FC
:104E4C00003F01D1012300E000231846BD465DF868
:104E5C00047B704780B400AF4FF0B0431B684FF039
:104E6C00B04243F48073136000BFBD465DF8047B11
:104E7C00704780B400AF4FF0B0431B684FF0B042A6
:104E8C0023F48073136000BFBD465DF8047B70474C
:104E9C0080B400AF4FF0B0431B6803F48063B3F5EC
:104EAC00806F01D1012300E000231846BD465DF858
:104EBC00047B704780B483B000AF78604FF0B04390
:104ECC005B6823F0FE427B681B064FF0B041134336
:104EDC004B6000BF0C37BD465DF8047B704780B457
:104EEC0000AF4FF0B043D3F898304FF0B04243F0DE
:104EFC000103C2F8983000BFBD465DF8047B7047D3
:104F0C0080B400AF4FF0B043D3F898304FF0B042BC
:104F1C0023F00103C2F8983000BFBD465DF8047B56
:104F2C00704780B400AF4FF0B043D3F8983003F023
:104F3C000203022B01D1012300E000231846BD46D9
:104F4C005DF8047B704780B400AF4FF0B043D3F8EA
:104F5C0090304FF0B04243F00103C2F8903000BFE4
:104F6C00BD465DF8047B704780B400AF4FF0B04392
:104F7C00D3F890304FF0B04223F00103C2F89030D8
:104F8C0000BFBD465DF8047B704780B400AF4FF0A6
:104F9C00B043D3F890304FF0B04243F00403C2F862
:104FAC00903000BFBD465DF8047B704780B400AF05
:104FBC004FF0B043D3F890304FF0B04223F00403DD
:104FCC00C2F8903000BFBD465DF8047B704780B4DA
:104FDC0000AF4FF0B043D3F8903003F00203022B34
:104FEC0001D1012300E000231846BD465DF8047B87
:104FFC00704780B400AF4FF0B043D3F894304FF00B
:10500C00B04243F00103C2F8943000BFBD465DF8D6
:10501C00047B704780B400AF4FF0B043D3F89430AA
:10502C004FF0B04223F00103C2F8943000BFBD46EC
:10503C005DF8047B704780B400AF4FF0B043D3F8F9
:10504C00943003F00203022B01D1012300E0002372
:10505C001846BD465DF8047B704780B400AF4FF036
:10506C00B043D3F894304FF0B04243F00403C2F88D
:10507C00943000BFBD465DF8047B704780B400AF30
:10508C004FF0B043D3F894304FF0B04223F0040308
:10509C00C2F8943000BFBD465DF8047B704780B405
:1050AC0000AF4FF0B043D3F8943003F00803082B53
:1050BC0001D1012300E000231846BD465DF8047BB6
:1050CC00704780B483B000AF78604FF0B043D3F832
:1050DC00943023F470627B681B024FF0B041134391
:1050EC00C1F8943000BF0C37BD465DF8047B7047A7
:1050FC0080B400AF4FF0B0431B684FF0B04243F0A8
:10510C000103136000BFBD465DF8047B704780B49B
:10511C0000AF4FF0B0431B684FF0B04223F00103D7
:10512C00136000BFBD465DF8047B704780B400AFD0
:10513C004FF0B0431B6803F00203022B01D1012393
:10514C0000E000231846BD465DF8047B704780B430
:10515C0083B000AF78604FF0B0431B6823F0F002CF
:10516C004FF0B0417B6813430B6000BF0C37BD465A
:10517C005DF8047B704780B483B000AF4FF0B04350
:10518C001B6803F0F0037B607B68B02B01D9B02364
:10519C007B607B6818460C37BD465DF8047B704716
:1051AC0080B483B000AF78604FF0B0435B6823F4F9
:1051BC007F427B681B024FF0B04113434B6000BF32
:1051CC000C37BD465DF8047B704780B483B000AFEC
:1051DC0078604FF0B0439B6823F003024FF0B0416E
:1051EC007B6813438B6000BF0C37BD465DF8047BB6
:1051FC00704780B400AF4FF0B0439B6803F00C03D2
:10520C001846BD465DF8047B704780B483B000AF90
:10521C0078604FF0B0439B6823F0F0024FF0B04140
:10522C007B6813438B6000BF0C37BD465DF8047B75
:10523C00704780B483B000AF78604FF0B043D3F8C0
:10524C00083123F0F0024FF0B0417B681343C1F8F2
:10525C00083100BF0C37BD465DF8047B704780B445
:10526C0083B000AF78604FF0B043D3F8083123F02F
:10527C000F027B681B094FF0B0411343C1F8083192
:10528C0000BF0C37BD465DF8047B704780B483B01B
:10529C0000AF78604FF0B0439B6823F4E0624FF0AE
:1052AC00B0417B6813438B6000BF0C37BD465DF883
:1052BC00047B704780B483B000AF78604FF0B0438C
:1052CC009B6823F460524FF0B0417B6813438B60B2
:1052DC0000BF0C37BD465DF8047B704780B400AF4F
:1052EC004FF0B0439B6803F0F0031846BD465DF8E1
:1052FC00047B704780B400AF4FF0B043D3F8083153
:10530C001B0103F0F0031846BD465DF8047B7047A3
:10531C0080B400AF4FF0B0431B684FF0B04243F085
:10532C008073136000BFBD465DF8047B704780B48A
:10533C0000AF4FF0B0431B684FF0B04223F08073C6
:10534C00136000BFBD465DF8047B704780B400AFAE
:10535C004FF0B0431B6803F00073B3F1007F01D131
:10536C00012300E000231846BD465DF8047B70471E
:10537C0080B400AF4FF0B043DB681B0A03F07F032F
:10538C001846BD465DF8047B704780B400AF4FF003
:10539C00B043DB6803F060431846BD465DF8047B00
:1053AC00704780B400AF4FF0B043DB6803F070037C
:1053BC001846BD465DF8047B704780B400AF4FF0D3
:1053CC00B043DB6803F003031846BD465DF8047B6D
:1053DC00704780B400AF4FF0B0439B6803F4803348
:1053EC00B3F5803F01D1012300E000231846BD46F0
:1053FC005DF8047B704780B400AF4FF0B043D3F836
:10540C00083103F40033B3F5003F01D1012300E070
:10541C0000231846BD465DF8047B704780B400AF8E
:10542C004FF0B043D3F8083103F48033B3F5803F29
:10543C0001D1012300E000231846BD465DF8047B32
:10544C00704780B400AF4FF0B0439B6803F4003357
:10545C00B3F5003F01D1012300E000231846BD46FF
:10546C005DF8047B704780B400AF4FF0B0439B688D
:10547C0003F48023B3F5802F01D1012300E0002336
:10548C001846BD465DF8047B7047000090B58DB0A2
:10549C0000AF78607B68002B01D1012363E37B684C
:1054AC001B6803F02003002B00F08D80FFF7A1FE9A
:1054BC00F862FFF782FFB862FB6A002B05D0FB6A2B
:1054CC000C2B47D1BB6A012B44D17B68DB69002BC9
:1054DC0001D1012347E37B685C6AFFF74CFE03466E
:1054EC009C4214D97B685B6A184600F003FD0346A6
:1054FC00002B01D0012336E37B685B6A1846FFF76B
:10550C0026FE7B681B6A1846FFF74AFE13E07B6891
:10551C005B6A1846FFF71BFE7B681B6A1846FFF791
:10552C003FFE7B685B6A184600F0E4FC0346002BE8
:10553C0001D0012317E300F0C9FC0346A44A136011
:10554C00A44B1B681846FDF777FF0346002B39D098
:10555C00012308E37B68DB69002B1ED0FFF7C8FD35
:10556C00FDF7B8FF786208E0FDF7B4FF02467B6AEE
:10557C00D31A022B01D90323F5E2FFF7D7FD03461B
:10558C00002BF1D07B685B6A1846FFF7E0FD7B6867
:10559C001B6A1846FFF704FE15E0FFF7B8FDFDF790
:1055AC0099FF786208E0FDF795FF02467B6AD31AF3
:1055BC00022B01D90323D6E2FFF7B8FD0346002BDB
:1055CC00F1D100E000BF7B681B6803F00103002BE6
:1055DC0047D0FFF70EFE3862FFF7EFFEF8613B6A2B
:1055EC00082B05D03B6A0C2B08D1FB69032B05D18A
:1055FC007B685B68002B34D10123B4E27B685B6869
:10560C00B3F5803F02D1FFF7F5FB01E0FFF701FC9A
:10561C007B685B68002B12D0FDF75CFF786208E0BA
:10562C00FDF758FF02467B6AD31A642B01D903237A
:10563C0099E2FFF7FDFB0346002BF1D011E0FDF7DB
:10564C0049FF786208E0FDF745FF02467B6AD31AF2
:10565C00642B01D9032386E2FFF7EAFB0346002BF8
:10566C00F1D17B681B6803F00203002B4CD0FFF7D1
:10567C00C0FDB861FFF7A1FE7861BB69042B05D0B2
:10568C00BB690C2B0ED17B69022B0BD17B68DB68C1
:10569C00002B01D1012366E27B681B691846FFF7DA
:1056AC0009FC31E07B68DB68002B19D0FFF7D2FBDB
:1056BC00FDF710FF786208E0FDF70CFF02467B6AED
:1056CC00D31A022B01D903234DE2FFF7E1FB03466A
:1056DC00002BF1D07B681B691846FFF7EBFB13E03E
:1056EC00FFF7C7FBFDF7F6FE786208E0FDF7F2FE68
:1056FC0002467B6AD31A022B01D9032333E2FFF74C
:10570C00C7FB0346002BF1D17B681B6803F0080331
:10571C00002B06D17B681B6803F01003002B00F0F4
:10572C00A3807B685B69002B76D07B681B6803F0D9
:10573C001003002B46D0FFF77EFC0346002B13D141
:10574C00FFF757FCFDF7C6FE786208E0FDF7C2FED6
:10575C0002467B6AD31A022B01D9032303E2FFF71B
:10576C006AFC0346002BF1D0FFF777FCFDF7B2FE85
:10577C00786208E0FDF7AEFE02467B6AD31A032B73
:10578C0001D90323EFE1FFF78AFC0346002BF1D08C
:10579C007B689B691846FFF794FCFFF73BFCFDF711
:1057AC0099FE786208E0FDF795FE02467B6AD31AF3
:1057BC00022B01D90323D6E1FFF73DFC0346002B56
:1057CC00F1D151E0FFF715FCFDF784FE78620CE097
:1057DC002400002028000020FDF77CFE02467B6A96
:1057EC00D31A022B01D90323BDE1FFF724FC034696
:1057FC00002BF1D0FFF742FC08E0FDF76BFE0246F0
:10580C007B6AD31A032B01D90323ACE1FFF747FCC6
:10581C000346002BF1D127E0FFF730FCFDF75AFED1
:10582C00786208E0FDF756FE02467B6AD31A032B1A
:10583C0001D9032397E1FFF732FC0346002BF1D18A
:10584C00FFF7E8FBFDF746FE786208E0FDF742FE45
:10585C0002467B6AD31A022B01D9032383E1FFF79B
:10586C00EAFB0346002BF1D17B681B6803F00403B1
:10587C00002B5BD0A74B1B6803F48073002B14D157
:10588C00FFF788FAFDF726FE786208E0FDF722FEA6
:10589C0002467B6AD31A022B01D9032363E19D4B89
:1058AC001B6803F48073002BF0D07B689B68012B82
:1058BC0002D1FFF748FB0CE07B689B68052B04D1F9
:1058CC00FFF763FBFFF73FFB03E0FFF74DFBFFF731
:1058DC006DFB7B689B68002B14D0FDF7FBFD786299
:1058EC000AE0FDF7F7FD02467B6AD31A41F28832D3
:1058FC00934201D9032336E1FFF769FB0346002BE2
:10590C00EFD013E0FDF7E6FD78620AE0FDF7E2FD6B
:10591C0002467B6AD31A41F28832934201D903239F
:10592C0021E1FFF754FB0346002BEFD17B681B688A
:10593C0003F04003002B2CD07B689B6A002B14D007
:10594C00FFF7CDFAFDF7C6FD786208E0FDF7C2FD62
:10595C0002467B6AD31A022B01D9032303E1FFF71A
:10596C00E0FA0346002BF1D013E0FFF7C9FAFDF77C
:10597C00B1FD786208E0FDF7ADFD02467B6AD31AF3
:10598C00022B01D90323EEE0FFF7CBFA0346002BE1
:10599C00F1D17B68DB6A002B00F0E480FFF729FC77
:1059AC0038614FF0B043DB68FB607B68DB6A022B2D
:1059BC0040F0B480FB6803F003027B681B6B9A42D7
:1059CC0023D1FB6803F070027B685B6B9A421CD19D
:1059DC00FB681B0A03F07F027B689B6B9A4214D115
:1059EC00FB6803F478127B68DB6B9A420DD1FB6881
:1059FC0003F060627B681B6C9A4206D1FB6803F073
:105A0C0060427B685B6C9A425DD03B690C2B58D032
:105A1C004FF0B0431B6803F08063002B01D00123CF
:105A2C00A1E0FFF784FCFDF755FD786208E0FDF777
:105A3C0051FD02467B6AD31A022B01D9032392E053
:105A4C004FF0B0431B6803F00073002BEFD14FF005
:105A5C00B043DA68304B13407A68116B7A68526B3A
:105A6C0011437A68926B120211437A68D26B11431C
:105A7C007A68126C11437A68526C0A434FF0B04149
:105A8C001343CB60FFF744FC4FF0B043DB684FF09F
:105A9C00B04243F08053D360FDF71CFD786208E000
:105AAC00FDF718FD02467B6AD31A022B01D903239A
:105ABC0059E04FF0B0431B6803F00073002BEFD09C
:105ACC0050E001234FE04FF0B0431B6803F000732C
